{
  "_format": "hh-sol-artifact-1",
  "contractName": "PoolAndArbitrage",
  "sourceName": "contracts/PoolAndArbitrage.sol",
  "abi": [
    {
      "anonymous": false,
      "inputs": [
        {
          "indexed": false,
          "internalType": "uint256",
          "name": "amountRepay",
          "type": "uint256"
        },
        {
          "indexed": false,
          "internalType": "uint256",
          "name": "amountOut",
          "type": "uint256"
        }
      ],
      "name": "ArbitrageReached",
      "type": "event"
    },
    {
      "anonymous": false,
      "inputs": [
        {
          "indexed": false,
          "internalType": "uint256",
          "name": "value1",
          "type": "uint256"
        },
        {
          "indexed": false,
          "internalType": "uint256",
          "name": "value2",
          "type": "uint256"
        },
        {
          "indexed": false,
          "internalType": "uint256",
          "name": "value3",
          "type": "uint256"
        }
      ],
      "name": "FillPoll",
      "type": "event"
    },
    {
      "anonymous": false,
      "inputs": [
        {
          "indexed": false,
          "internalType": "uint256",
          "name": "value1",
          "type": "uint256"
        },
        {
          "indexed": false,
          "internalType": "uint256",
          "name": "value2",
          "type": "uint256"
        },
        {
          "indexed": false,
          "internalType": "uint256",
          "name": "value3",
          "type": "uint256"
        }
      ],
      "name": "FillPollETH",
      "type": "event"
    },
    {
      "inputs": [
        {
          "internalType": "address",
          "name": "routerAddress",
          "type": "address"
        },
        {
          "internalType": "address",
          "name": "tokenA",
          "type": "address"
        },
        {
          "internalType": "address",
          "name": "tokenB",
          "type": "address"
        },
        {
          "internalType": "uint256",
          "name": "amountToFillA",
          "type": "uint256"
        },
        {
          "internalType": "uint256",
          "name": "amountToFillB",
          "type": "uint256"
        },
        {
          "internalType": "uint256",
          "name": "amountMinTokenA",
          "type": "uint256"
        },
        {
          "internalType": "uint256",
          "name": "amountMinTokenB",
          "type": "uint256"
        }
      ],
      "name": "addLiquidityToPool",
      "outputs": [
        {
          "internalType": "uint256",
          "name": "",
          "type": "uint256"
        },
        {
          "internalType": "uint256",
          "name": "",
          "type": "uint256"
        },
        {
          "internalType": "uint256",
          "name": "",
          "type": "uint256"
        }
      ],
      "stateMutability": "nonpayable",
      "type": "function"
    },
    {
      "inputs": [
        {
          "internalType": "address",
          "name": "routerAddress",
          "type": "address"
        },
        {
          "internalType": "address",
          "name": "tokenA",
          "type": "address"
        },
        {
          "internalType": "uint256",
          "name": "amountToFillA",
          "type": "uint256"
        },
        {
          "internalType": "uint256",
          "name": "amountMinTokenA",
          "type": "uint256"
        }
      ],
      "name": "addLiquidityToPoolWETH",
      "outputs": [
        {
          "internalType": "uint256",
          "name": "",
          "type": "uint256"
        },
        {
          "internalType": "uint256",
          "name": "",
          "type": "uint256"
        },
        {
          "internalType": "uint256",
          "name": "",
          "type": "uint256"
        }
      ],
      "stateMutability": "payable",
      "type": "function"
    },
    {
      "inputs": [
        {
          "internalType": "address",
          "name": "tokenA",
          "type": "address"
        },
        {
          "internalType": "address",
          "name": "tokenB",
          "type": "address"
        },
        {
          "internalType": "address",
          "name": "factoryAddress",
          "type": "address"
        }
      ],
      "name": "createPair",
      "outputs": [],
      "stateMutability": "nonpayable",
      "type": "function"
    },
    {
      "inputs": [
        {
          "internalType": "address",
          "name": "factoryAddress",
          "type": "address"
        },
        {
          "internalType": "address",
          "name": "tokenA",
          "type": "address"
        },
        {
          "internalType": "address",
          "name": "tokenB",
          "type": "address"
        }
      ],
      "name": "getPairAddress",
      "outputs": [
        {
          "internalType": "address",
          "name": "",
          "type": "address"
        }
      ],
      "stateMutability": "view",
      "type": "function"
    },
    {
      "inputs": [
        {
          "internalType": "address",
          "name": "tokenToBorrow",
          "type": "address"
        },
        {
          "internalType": "address",
          "name": "tokenToPair",
          "type": "address"
        },
        {
          "internalType": "uint256",
          "name": "amountBorrow",
          "type": "uint256"
        },
        {
          "internalType": "address",
          "name": "factory",
          "type": "address"
        },
        {
          "internalType": "address",
          "name": "router1",
          "type": "address"
        },
        {
          "internalType": "address",
          "name": "router2",
          "type": "address"
        }
      ],
      "name": "startArbitrage",
      "outputs": [],
      "stateMutability": "nonpayable",
      "type": "function"
    },
    {
      "inputs": [
        {
          "internalType": "address",
          "name": "_sender",
          "type": "address"
        },
        {
          "internalType": "uint256",
          "name": "_amount0Out",
          "type": "uint256"
        },
        {
          "internalType": "uint256",
          "name": "_amount1Out",
          "type": "uint256"
        },
        {
          "internalType": "bytes",
          "name": "_data",
          "type": "bytes"
        }
      ],
      "name": "uniswapV2Call",
      "outputs": [],
      "stateMutability": "nonpayable",
      "type": "function"
    },
    {
      "stateMutability": "payable",
      "type": "receive"
    }
  ],
  "bytecode": "0x6080604052735c69bee701ef814a2b6a3edd4b1652cb9cc5aa6f6000806101000a81548173ffffffffffffffffffffffffffffffffffffffff021916908373ffffffffffffffffffffffffffffffffffffffff160217905550737a250d5630b4cf539739df2c5dacb4c659f2488d600160006101000a81548173ffffffffffffffffffffffffffffffffffffffff021916908373ffffffffffffffffffffffffffffffffffffffff16021790555073c0aee478e3658e2610c5f7a4a2e1777ce9e4f2ac600260006101000a81548173ffffffffffffffffffffffffffffffffffffffff021916908373ffffffffffffffffffffffffffffffffffffffff16021790555073d9e1ce17f2641f24ae83637ab66a2cca9c378b9f600360006101000a81548173ffffffffffffffffffffffffffffffffffffffff021916908373ffffffffffffffffffffffffffffffffffffffff16021790555073c02aaa39b223fe8d0a0e5c4f27ead9083c756cc2600460006101000a81548173ffffffffffffffffffffffffffffffffffffffff021916908373ffffffffffffffffffffffffffffffffffffffff1602179055503480156101b857600080fd5b506124bc806101c86000396000f3fe6080604052600436106100595760003560e01c806310d1e85c146100655780633d61f39b1461008e578063524d01f8146100c057806376f79738146100fd578063c61d3e7214610126578063dd0490d01461016557610060565b3661006057005b600080fd5b34801561007157600080fd5b5061008c6004803603810190610087919061194b565b61018e565b005b6100a860048036038101906100a391906118e8565b61064b565b6040516100b793929190611fd5565b60405180910390f35b3480156100cc57600080fd5b506100e760048036038101906100e29190611772565b610860565b6040516100f49190611c32565b60405180910390f35b34801561010957600080fd5b50610124600480360381019061011f9190611772565b6108f6565b005b34801561013257600080fd5b5061014d600480360381019061014891906117c1565b6109ce565b60405161015c93929190611fd5565b60405180910390f35b34801561017157600080fd5b5061018c6004803603810190610187919061185f565b610d07565b005b60003373ffffffffffffffffffffffffffffffffffffffff16630dfe16816040518163ffffffff1660e01b815260040160206040518083038186803b1580156101d657600080fd5b505afa1580156101ea573d6000803e3d6000fd5b505050506040513d601f19601f8201168201806040525081019061020e91906116c0565b905060003373ffffffffffffffffffffffffffffffffffffffff1663d21220a76040518163ffffffff1660e01b815260040160206040518083038186803b15801561025857600080fd5b505afa15801561026c573d6000803e3d6000fd5b505050506040513d601f19601f8201168201806040525081019061029091906116c0565b905060008060008060008089898101906102aa91906116e9565b95509550955095509550955060008673ffffffffffffffffffffffffffffffffffffffff1663e6a439058a8a6040518363ffffffff1660e01b81526004016102f3929190611c4d565b60206040518083038186803b15801561030b57600080fd5b505afa15801561031f573d6000803e3d6000fd5b505050506040513d601f19601f8201168201806040525081019061034391906116c0565b90503073ffffffffffffffffffffffffffffffffffffffff168e73ffffffffffffffffffffffffffffffffffffffff16146103b3576040517f08c379a00000000000000000000000000000000000000000000000000000000081526004016103aa90611eb6565b60405180910390fd5b8073ffffffffffffffffffffffffffffffffffffffff163373ffffffffffffffffffffffffffffffffffffffff1614610421576040517f08c379a000000000000000000000000000000000000000000000000000000000815260040161041890611e76565b60405180910390fd5b600060016103e5600387610435919061214a565b61043f9190612119565b61044991906120c3565b90506000858261045991906120c3565b9050600061046a8a8a88888b6110a7565b9050600061047b8b8a888a866110a7565b905060006104898483611555565b9050806104cb576040517f08c379a00000000000000000000000000000000000000000000000000000000081526004016104c290611e96565b60405180910390fd5b8773ffffffffffffffffffffffffffffffffffffffff1663a9059cbb33866040518363ffffffff1660e01b8152600401610506929190611d8c565b602060405180830381600087803b15801561052057600080fd5b505af1158015610534573d6000803e3d6000fd5b505050506040513d601f19601f820116820180604052508101906105589190611a0c565b508773ffffffffffffffffffffffffffffffffffffffff1663a9059cbb32868561058291906121a4565b6040518363ffffffff1660e01b815260040161059f929190611d8c565b602060405180830381600087803b1580156105b957600080fd5b505af11580156105cd573d6000803e3d6000fd5b505050506040513d601f19601f820116820180604052508101906105f19190611a0c565b507f94c9df7e23f31fb9e197c5888fca1e5745418b407dbe585e9c3b9232d1bb082384858461062091906121a4565b60405161062e929190611f06565b60405180910390a150505050505050505050505050505050505050565b60008060008573ffffffffffffffffffffffffffffffffffffffff166323b872dd3330886040518463ffffffff1660e01b815260040161068d93929190611cd7565b602060405180830381600087803b1580156106a757600080fd5b505af11580156106bb573d6000803e3d6000fd5b505050506040513d601f19601f820116820180604052508101906106df9190611a0c565b508573ffffffffffffffffffffffffffffffffffffffff1663095ea7b388876040518363ffffffff1660e01b815260040161071b929190611d8c565b602060405180830381600087803b15801561073557600080fd5b505af1158015610749573d6000803e3d6000fd5b505050506040513d601f19601f8201168201806040525081019061076d9190611a0c565b5060008060008973ffffffffffffffffffffffffffffffffffffffff1663f305d719348b8b8b3430426040518863ffffffff1660e01b81526004016107b796959493929190611db5565b6060604051808303818588803b1580156107d057600080fd5b505af11580156107e4573d6000803e3d6000fd5b50505050506040513d601f19601f820116820180604052508101906108099190611a35565b9250925092507fbc483489bc16322067e4e0b8bdc7e1f9243465d59862d26f9315b2740d8eb69e83838360405161084293929190611fd5565b60405180910390a18282829550955095505050509450945094915050565b60008373ffffffffffffffffffffffffffffffffffffffff1663e6a4390584846040518363ffffffff1660e01b815260040161089d929190611c4d565b60206040518083038186803b1580156108b557600080fd5b505afa1580156108c9573d6000803e3d6000fd5b505050506040513d601f19601f820116820180604052508101906108ed91906116c0565b90509392505050565b60008173ffffffffffffffffffffffffffffffffffffffff1663c9c6539685856040518363ffffffff1660e01b8152600401610933929190611c4d565b602060405180830381600087803b15801561094d57600080fd5b505af1158015610961573d6000803e3d6000fd5b505050506040513d601f19601f8201168201806040525081019061098591906116c0565b905083600560006101000a81548173ffffffffffffffffffffffffffffffffffffffff021916908373ffffffffffffffffffffffffffffffffffffffff16021790555050505050565b60008060008873ffffffffffffffffffffffffffffffffffffffff166323b872dd33308a6040518463ffffffff1660e01b8152600401610a1093929190611cd7565b602060405180830381600087803b158015610a2a57600080fd5b505af1158015610a3e573d6000803e3d6000fd5b505050506040513d601f19601f82011682018060405250810190610a629190611a0c565b508873ffffffffffffffffffffffffffffffffffffffff1663095ea7b38b896040518363ffffffff1660e01b8152600401610a9e929190611d8c565b602060405180830381600087803b158015610ab857600080fd5b505af1158015610acc573d6000803e3d6000fd5b505050506040513d601f19601f82011682018060405250810190610af09190611a0c565b508773ffffffffffffffffffffffffffffffffffffffff166323b872dd3330896040518463ffffffff1660e01b8152600401610b2e93929190611cd7565b602060405180830381600087803b158015610b4857600080fd5b505af1158015610b5c573d6000803e3d6000fd5b505050506040513d601f19601f82011682018060405250810190610b809190611a0c565b508773ffffffffffffffffffffffffffffffffffffffff1663095ea7b38b886040518363ffffffff1660e01b8152600401610bbc929190611d8c565b602060405180830381600087803b158015610bd657600080fd5b505af1158015610bea573d6000803e3d6000fd5b505050506040513d601f19601f82011682018060405250810190610c0e9190611a0c565b5060008060008c73ffffffffffffffffffffffffffffffffffffffff1663e8e337008d8d8d8d8d8d30426040518963ffffffff1660e01b8152600401610c5b989796959493929190611d0e565b606060405180830381600087803b158015610c7557600080fd5b505af1158015610c89573d6000803e3d6000fd5b505050506040513d601f19601f82011682018060405250810190610cad9190611a35565b9250925092507f39134883b5cf4aee85c5ee41e21baf840d80ddcc51e7357c48ebcb0bf775d933838383604051610ce693929190611fd5565b60405180910390a18282829550955095505050509750975097945050505050565b60008373ffffffffffffffffffffffffffffffffffffffff1663e6a4390588600460009054906101000a900473ffffffffffffffffffffffffffffffffffffffff166040518363ffffffff1660e01b8152600401610d66929190611c4d565b60206040518083038186803b158015610d7e57600080fd5b505afa158015610d92573d6000803e3d6000fd5b505050506040513d601f19601f82011682018060405250810190610db691906116c0565b9050600073ffffffffffffffffffffffffffffffffffffffff168173ffffffffffffffffffffffffffffffffffffffff161415610e28576040517f08c379a0000000000000000000000000000000000000000000000000000000008152600401610e1f90611e36565b60405180910390fd5b60008173ffffffffffffffffffffffffffffffffffffffff16630dfe16816040518163ffffffff1660e01b815260040160206040518083038186803b158015610e7057600080fd5b505afa158015610e84573d6000803e3d6000fd5b505050506040513d601f19601f82011682018060405250810190610ea891906116c0565b905060008273ffffffffffffffffffffffffffffffffffffffff1663d21220a76040518163ffffffff1660e01b815260040160206040518083038186803b158015610ef257600080fd5b505afa158015610f06573d6000803e3d6000fd5b505050506040513d601f19601f82011682018060405250810190610f2a91906116c0565b905060008273ffffffffffffffffffffffffffffffffffffffff168a73ffffffffffffffffffffffffffffffffffffffff1614610f68576000610f6a565b875b905060008273ffffffffffffffffffffffffffffffffffffffff168b73ffffffffffffffffffffffffffffffffffffffff1614610fa8576000610faa565b885b90506000821480610fbb5750600081145b610ffa576040517f08c379a0000000000000000000000000000000000000000000000000000000008152600401610ff190611e56565b60405180910390fd5b60008888888c8f8f60405160200161101796959493929190611c76565b60405160208183030381529060405290508573ffffffffffffffffffffffffffffffffffffffff1663022c0d9f848430856040518563ffffffff1660e01b81526004016110679493929190611f2f565b600060405180830381600087803b15801561108157600080fd5b505af1158015611095573d6000803e3d6000fd5b50505050505050505050505050505050565b6000808673ffffffffffffffffffffffffffffffffffffffff1663e6a4390586866040518363ffffffff1660e01b81526004016110e5929190611c4d565b60206040518083038186803b1580156110fd57600080fd5b505afa158015611111573d6000803e3d6000fd5b505050506040513d601f19601f8201168201806040525081019061113591906116c0565b9050600073ffffffffffffffffffffffffffffffffffffffff168173ffffffffffffffffffffffffffffffffffffffff1614156111a7576040517f08c379a000000000000000000000000000000000000000000000000000000000815260040161119e90611e16565b60405180910390fd5b6000600267ffffffffffffffff8111156111ea577f4e487b7100000000000000000000000000000000000000000000000000000000600052604160045260246000fd5b6040519080825280602002602001820160405280156112185781602001602082028036833780820191505090505b5090508581600081518110611256577f4e487b7100000000000000000000000000000000000000000000000000000000600052603260045260246000fd5b602002602001019073ffffffffffffffffffffffffffffffffffffffff16908173ffffffffffffffffffffffffffffffffffffffff168152505084816001815181106112cb577f4e487b7100000000000000000000000000000000000000000000000000000000600052603260045260246000fd5b602002602001019073ffffffffffffffffffffffffffffffffffffffff16908173ffffffffffffffffffffffffffffffffffffffff16815250508573ffffffffffffffffffffffffffffffffffffffff1663095ea7b388866040518363ffffffff1660e01b8152600401611340929190611d8c565b602060405180830381600087803b15801561135a57600080fd5b505af115801561136e573d6000803e3d6000fd5b505050506040513d601f19601f820116820180604052508101906113929190611a0c565b5060008773ffffffffffffffffffffffffffffffffffffffff1663d06ca61f86846040518363ffffffff1660e01b81526004016113d0929190611ed6565b60006040518083038186803b1580156113e857600080fd5b505afa1580156113fc573d6000803e3d6000fd5b505050506040513d6000823e3d601f19601f8201168201806040525081019061142591906119cb565b60018151811061145e577f4e487b7100000000000000000000000000000000000000000000000000000000600052603260045260246000fd5b6020026020010151905060008873ffffffffffffffffffffffffffffffffffffffff166338ed173987848630426040518663ffffffff1660e01b81526004016114ab959493929190611f7b565b600060405180830381600087803b1580156114c557600080fd5b505af11580156114d9573d6000803e3d6000fd5b505050506040513d6000823e3d601f19601f8201168201806040525081019061150291906119cb565b60018151811061153b577f4e487b7100000000000000000000000000000000000000000000000000000000600052603260045260246000fd5b602002602001015190508094505050505095945050505050565b6000828211905092915050565b600061157561157084612031565b61200c565b9050808382526020820190508285602086028201111561159457600080fd5b60005b858110156115c457816115aa88826116ab565b845260208401935060208301925050600181019050611597565b5050509392505050565b6000813590506115dd8161242a565b92915050565b6000815190506115f28161242a565b92915050565b60008135905061160781612441565b92915050565b600082601f83011261161e57600080fd5b815161162e848260208601611562565b91505092915050565b60008151905061164681612458565b92915050565b60008083601f84011261165e57600080fd5b8235905067ffffffffffffffff81111561167757600080fd5b60208301915083600182028301111561168f57600080fd5b9250929050565b6000813590506116a58161246f565b92915050565b6000815190506116ba8161246f565b92915050565b6000602082840312156116d257600080fd5b60006116e0848285016115e3565b91505092915050565b60008060008060008060c0878903121561170257600080fd5b600061171089828a016115f8565b965050602061172189828a016115f8565b955050604061173289828a016115f8565b945050606061174389828a01611696565b935050608061175489828a016115f8565b92505060a061176589828a016115f8565b9150509295509295509295565b60008060006060848603121561178757600080fd5b6000611795868287016115ce565b93505060206117a6868287016115ce565b92505060406117b7868287016115ce565b9150509250925092565b600080600080600080600060e0888a0312156117dc57600080fd5b60006117ea8a828b016115ce565b97505060206117fb8a828b016115ce565b965050604061180c8a828b016115ce565b955050606061181d8a828b01611696565b945050608061182e8a828b01611696565b93505060a061183f8a828b01611696565b92505060c06118508a828b01611696565b91505092959891949750929550565b60008060008060008060c0878903121561187857600080fd5b600061188689828a016115ce565b965050602061189789828a016115ce565b95505060406118a889828a01611696565b94505060606118b989828a016115ce565b93505060806118ca89828a016115ce565b92505060a06118db89828a016115ce565b9150509295509295509295565b600080600080608085870312156118fe57600080fd5b600061190c878288016115ce565b945050602061191d878288016115ce565b935050604061192e87828801611696565b925050606061193f87828801611696565b91505092959194509250565b60008060008060006080868803121561196357600080fd5b6000611971888289016115ce565b955050602061198288828901611696565b945050604061199388828901611696565b935050606086013567ffffffffffffffff8111156119b057600080fd5b6119bc8882890161164c565b92509250509295509295909350565b6000602082840312156119dd57600080fd5b600082015167ffffffffffffffff8111156119f757600080fd5b611a038482850161160d565b91505092915050565b600060208284031215611a1e57600080fd5b6000611a2c84828501611637565b91505092915050565b600080600060608486031215611a4a57600080fd5b6000611a58868287016116ab565b9350506020611a69868287016116ab565b9250506040611a7a868287016116ab565b9150509250925092565b6000611a908383611a9c565b60208301905092915050565b611aa5816121d8565b82525050565b611ab4816121d8565b82525050565b6000611ac58261206d565b611acf8185612090565b9350611ada8361205d565b8060005b83811015611b0b578151611af28882611a84565b9750611afd83612083565b925050600181019050611ade565b5085935050505092915050565b6000611b2382612078565b611b2d81856120a1565b9350611b3d818560208601612232565b611b4681612323565b840191505092915050565b6000611b5e600f836120b2565b9150611b6982612334565b602082019050919050565b6000611b81600f836120b2565b9150611b8c8261235d565b602082019050919050565b6000611ba46020836120b2565b9150611baf82612386565b602082019050919050565b6000611bc7601e836120b2565b9150611bd2826123af565b602082019050919050565b6000611bea601a836120b2565b9150611bf5826123d8565b602082019050919050565b6000611c0d601b836120b2565b9150611c1882612401565b602082019050919050565b611c2c81612228565b82525050565b6000602082019050611c476000830184611aab565b92915050565b6000604082019050611c626000830185611aab565b611c6f6020830184611aab565b9392505050565b600060c082019050611c8b6000830189611aab565b611c986020830188611aab565b611ca56040830187611aab565b611cb26060830186611c23565b611cbf6080830185611aab565b611ccc60a0830184611aab565b979650505050505050565b6000606082019050611cec6000830186611aab565b611cf96020830185611aab565b611d066040830184611c23565b949350505050565b600061010082019050611d24600083018b611aab565b611d31602083018a611aab565b611d3e6040830189611c23565b611d4b6060830188611c23565b611d586080830187611c23565b611d6560a0830186611c23565b611d7260c0830185611aab565b611d7f60e0830184611c23565b9998505050505050505050565b6000604082019050611da16000830185611aab565b611dae6020830184611c23565b9392505050565b600060c082019050611dca6000830189611aab565b611dd76020830188611c23565b611de46040830187611c23565b611df16060830186611c23565b611dfe6080830185611aab565b611e0b60a0830184611c23565b979650505050505050565b60006020820190508181036000830152611e2f81611b51565b9050919050565b60006020820190508181036000830152611e4f81611b74565b9050919050565b60006020820190508181036000830152611e6f81611b97565b9050919050565b60006020820190508181036000830152611e8f81611bba565b9050919050565b60006020820190508181036000830152611eaf81611bdd565b9050919050565b60006020820190508181036000830152611ecf81611c00565b9050919050565b6000604082019050611eeb6000830185611c23565b8181036020830152611efd8184611aba565b90509392505050565b6000604082019050611f1b6000830185611c23565b611f286020830184611c23565b9392505050565b6000608082019050611f446000830187611c23565b611f516020830186611c23565b611f5e6040830185611aab565b8181036060830152611f708184611b18565b905095945050505050565b600060a082019050611f906000830188611c23565b611f9d6020830187611c23565b8181036040830152611faf8186611aba565b9050611fbe6060830185611aab565b611fcb6080830184611c23565b9695505050505050565b6000606082019050611fea6000830186611c23565b611ff76020830185611c23565b6120046040830184611c23565b949350505050565b6000612016612027565b90506120228282612265565b919050565b6000604051905090565b600067ffffffffffffffff82111561204c5761204b6122f4565b5b602082029050602081019050919050565b6000819050602082019050919050565b600081519050919050565b600081519050919050565b6000602082019050919050565b600082825260208201905092915050565b600082825260208201905092915050565b600082825260208201905092915050565b60006120ce82612228565b91506120d983612228565b9250827fffffffffffffffffffffffffffffffffffffffffffffffffffffffffffffffff0382111561210e5761210d612296565b5b828201905092915050565b600061212482612228565b915061212f83612228565b92508261213f5761213e6122c5565b5b828204905092915050565b600061215582612228565b915061216083612228565b9250817fffffffffffffffffffffffffffffffffffffffffffffffffffffffffffffffff048311821515161561219957612198612296565b5b828202905092915050565b60006121af82612228565b91506121ba83612228565b9250828210156121cd576121cc612296565b5b828203905092915050565b60006121e382612208565b9050919050565b60006121f582612208565b9050919050565b60008115159050919050565b600073ffffffffffffffffffffffffffffffffffffffff82169050919050565b6000819050919050565b60005b83811015612250578082015181840152602081019050612235565b8381111561225f576000848401525b50505050565b61226e82612323565b810181811067ffffffffffffffff8211171561228d5761228c6122f4565b5b80604052505050565b7f4e487b7100000000000000000000000000000000000000000000000000000000600052601160045260246000fd5b7f4e487b7100000000000000000000000000000000000000000000000000000000600052601260045260246000fd5b7f4e487b7100000000000000000000000000000000000000000000000000000000600052604160045260246000fd5b6000601f19601f8301169050919050565b7f50616972206e6f74206578697374210000000000000000000000000000000000600082015250565b7f50616972204e6f74204578697374210000000000000000000000000000000000600082015250565b7f4f6e65206f662074686520616d6f756e74206d75737420746f20626520302021600082015250565b7f43616c6c6572206973206e6f7420746865207061697220616464726573730000600082015250565b7f417262697472616765206e6f742050726f66697461626c652120000000000000600082015250565b7f53656e646572206973206e6f742074686520636f6e7472616374210000000000600082015250565b612433816121d8565b811461243e57600080fd5b50565b61244a816121ea565b811461245557600080fd5b50565b612461816121fc565b811461246c57600080fd5b50565b61247881612228565b811461248357600080fd5b5056fea2646970667358221220316f939c894bedbb8d5774e51834ece59ce161ee2b8110b7e2e9b84308bd330564736f6c63430008040033",
  "linkReferences": {},
  "deployedLinkReferences": {}
}